:020000040000FA
:060000000A128A110C280F
:10000800FE00030EF0000A08F1000A128A114E28B9
:100018000A128A110F28F20183010A128A1145284F
:1000280083160317880189018316031385010614B3
:100038008614061587018801890183120313850137
:10004800860187018801831603130F088F396038EA
:100058008F000F1481128111011581140114ED30E4
:100068008312031381008316031381131514951447
:1000780015158B178B160B118B160B10161496145F
:1000880008000A128A1114200A128A114A280A1230
:100098008A110C280B0871088A00700E8300FE0E66
:0400A8007E0E0900BF
:04400E00D420FF3F7C
:00000001FF
