:020000040000FA
:060000000A128A110C280F
:10000800FE00030EF0000A08F1000A128A11812886
:100018000A128A110F28F50183010A128A1114287D
:100028000A128A1169200A128A118312031305140D
:100038008510051185110630F4001330F300AD303A
:10004800F200F20B2528F30B2528F40B25282C2881
:100058008312031305108514051185110630F40069
:100068001330F300AD30F200F20B3828F30B3828C8
:10007800F40B38283F288312031305108510051543
:1000880085110630F4001330F300AD30F200F20BA6
:100098004B28F30B4B28F40B4B28522883120313DD
:1000A80005108510051185150630F4001330F3008E
:1000B800AD30F200F20B5E28F30B5E28F40B5E28DD
:1000C800652819280A128A110C2883160317880133
:1000D80089018316031305108510051185118312F4
:1000E80003130510851005118511831603130F08D6
:1000F8008F3960388F000F14080071088A00700E5D
:080108008300FE0E7E0E0900CB
:04400E00D420FF3F7C
:00000001FF
