:020000040000FA
:060000000A128A110C280F
:10000800FE00030EF0000A08F1000A128A11232AE2
:100018000A128A110F28F801F901FA01FB01FC0103
:1000280083010A128A1188297D2883120313081470
:100038008810081188110812881208138813A2283A
:1000480083120313081488140811881108128812DF
:1000580008138813A2288312031308148814081598
:1000680088110812881208138813A2288312031310
:10007800081488140815881508128812081388139C
:10008800A228831203130814881408158815081663
:10009800881208138813A2288312031308148814DB
:1000A800081588150816881608138813A2288312BD
:1000B80003130814881408158815081688160817D5
:1000C8008813A228831203130814881408158815A6
:1000D8000816881608178817A228F8018312031330
:1000E800081088100811881108128812081388133C
:1000F800A2287808F200F3017308003A031985284A
:10010800A2287208013A03191928033A0319242866
:10011800013A03192F28073A03193A28013A031913
:100128004528033A03195028013A03195B280F3A66
:1001380003196628013A03197128A228080008291A
:1001480083120313071487100711871107128712E8
:10015800071387132D298312031307148714071114
:10016800871107128712071387132D298312031388
:1001780007148714071587110712871207138713A7
:100188002D298312031307148714071587150712DF
:100198008712071387132D29831203130714871453
:1001A8000715871507168712071387132D2983123A
:1001B80003130714871407158715071687160713DF
:1001C80087132D298312031307148714071587151E
:1001D80007168716071787132D2983120313071489
:1001E80087140715871507168716071787172D29E8
:1001F800F9018312031307108710071187110712DB
:100208008712071387132D297908F200F301730861
:10021800003A031910292D297208013A0319A42854
:10022800033A0319AF28013A0319BA28073A031900
:10023800C528013A0319D028033A0319DB28013AE3
:100248000319E6280F3A0319F128013A0319FC2883
:100258002D2908000130F5000030F6005E298312D0
:1002680003130910891009110330F4008A30F300D0
:100278005530F200F20B3E29F30B3E29F40B3E29D0
:10028800452974298312031309148910091138297F
:1002980083120313091489140911382983120313CB
:1002A80009148914091538298312031309108910B0
:1002B800091138297608003A031963297429750841
:1002C800013A03193329033A03194629013A031954
:1002D8004C29073A03195229013A03195829742954
:1002E8000130F5070318F60A0030F6077608803A59
:1002F800FF0080307F02031D832906307502031C2E
:10030800862987295E2908000A128A11E1210A1222
:100318008A11831203130618922993299529FC013F
:10032800FC0A061C98299929A4297C03031D9D29E8
:100338009E29A4290A128A112E210A128A11A92992
:100348000A128A112D220A128A118312031386189F
:10035800AE29AF29B129FB01FB0A861CB429B529AE
:10036800C3297B03031DB929BA29C3290130F70022
:100378007708F9070A128A11A3200A128A11831230
:1003880003130619C829C929CB29FA01FA0A061D37
:10039800CE29CF298D297A03031DD329D4298D2964
:1003A8000130F7007708F8070A128A1118200A1294
:1003B8008A118D290A128A110C28831603178801BD
:1003C800890183160313850106148614061587010F
:1003D8008801890183120313850186018701880139
:1003E8008901831603130F088F3960388F000F14A3
:1003F80081128111011581140114ED308312031348
:10040800810083160313811315149514151583128F
:1004180003139016101690151015901010140A302A
:100428008F0069308E008B178B160B118B160B10F3
:10043800831603130C14831203130C100800831281
:1004480003130C0871088A00700E8300FE0E7E0EDE
:0E04580009008312031309108910091108000E
:04400E00D420FF3F7C
:00000001FF
