:020000040000FA
:060000000A128A110C280F
:10000800FE00030EF0000A08F1000A128A114928BE
:100018000A128A110F28F20183010A128A11402854
:1000280083160317880189018316031385010614B3
:10003800861406158701880183120313850186013A
:1000480087018801831603130F088F3960388F00E2
:100058000F1481128111011581140114ED308312DE
:10006800031381008B178B160B118B160B1083163D
:1000780003131614961408000A128A1114200A127F
:100088008A1145280A128A110C2871088A00700EF4
:080098008300FE0E7E0E09003C
:04400E00D420FF3F7C
:00000001FF
