:020000040000FA
:060000000A128A11F72F1D
:100B6600831203130910891009110800831603174D
:100B76008801890183160313850106148614061558
:100B86008701880189018312031385018601870184
:100B960088018901831603130F088F3960388F0087
:100BA6000F1481131514951415158B178B160B112D
:100BB6008B168B150B100C14831203130C100800E4
:100BC6000130F3000030F400132E831203130910D2
:100BD600891009110330F2008A30F1005530F00017
:100BE600F00BF32DF10BF32DF20BF32DFA2D292E2D
:100BF60083120313091489100911ED2D83120313AF
:100C0600091489140911ED2D83120313091489148B
:100C16000915ED2D83120313091089100911ED2D05
:100C26007408003A0319182E292E7308013A03197D
:100C3600E82D033A0319FB2D013A0319012E073A51
:100C46000319072E013A03190D2E292E0130F30739
:100C56000318F40A0030F4077408803AFF00803065
:100C66007F02031D382E06307302031C3B2E3C2EDA
:100C7600132E0800A52E83120313081488100811DA
:100C860088110812881208138813CD2E83120313B5
:100C9600081488140811881108128812081388137A
:100CA600CD2E831203130814881408158811081210
:100CB600881208138813CD2E831203130814881480
:100CC600081588150812881208138813CD2E83126A
:100CD60003130814881408158815081688120813B3
:100CE6008813CD2E8312031308148814081588154B
:100CF6000816881608138813CD2E831203130814BA
:100D06008814081588150816881608178813CD2E16
:100D160083120313081488140815881508168816F4
:100D260008178817CD2E8312031308108810081190
:100D360088110812881208138813DA308500CD2E20
:100D4600F801CD2E7808F000F1017108003A031978
:100D5600AD2ECD2E7008013A03193E2E033A031923
:100D6600492E063A0319542E023A03195F2E0E3AFB
:100D760003196A2E023A0319752E063A0319802EB4
:100D8600023A03198B2E1E3A0319962E023A0319BC
:100D9600A32ECD2E0800372F8312031307148710B6
:100DA6000711871107128712071387135F2F831204
:100DB60003130714871407118711071287120713E5
:100DC60087135F2F831203130714871407158711E0
:100DD60007128712071387135F2F83120313071453
:100DE60087140715871507128712071387135F2FB6
:100DF600831203130714871407158715071687121E
:100E0600071387135F2F831203130714871407151D
:100E1600871507168716071387135F2F8312031389
:100E260007148714071587150716871607178713DC
:100E36005F2F8312031307148714071587150716E8
:100E46008716071787175F2FF901831203130710F9
:100E560087100711871107128712071387130C30A3
:100E660085005F2FF9015F2F7908F000F101710805
:100E7600003A03193F2F5F2F7008013A0319CF2E4E
:100E8600033A0319DA2E063A0319E52E023A031934
:100E9600F02E0E3A0319FB2E023A0319062F063AD4
:100EA6000319112F023A03191C2F1E3A0319272F73
:100EB600023A0319352F5F2F08000A128A11B92545
:100EC6000A128A118312031306186A2F6B2FEB2F4F
:100ED6000A128A11E3250A128A11E42F8618742F42
:100EE600752F772FFC01FC0A86187A2F7B2F912FFE
:100EF6007C03031D7F2F802F912F0330F7008A304C
:100F0600F6005530F500F50B862FF60B862FF70BFE
:100F1600862F8D2F0130F5007508F907831203130C
:100F26000619962F972FA62F0330F7008A30F60062
:100F36005530F500F50B9D2FF60B9D2FF70B9D2FCA
:100F4600A42FFB01FB0A831203130619AB2FAC2F48
:100F5600B52F7B03031DB02FB12FB52F0130F50040
:100F66007508F8070A128A11CE260A128A110A1281
:100F76008A113D260A128A1111307906031DC42FE3
:100F8600C52FD02F113078020318CA2FCB2FD02FA0
:100F96000F30831203138900E42F113079020318EE
:100FA600D52FD62FE12F11307806031DDB2FDC2F2E
:100FB600E12FF030831203138900E42F8312031309
:100FC6008901831203130618E92FEA2F712FF12FD7
:100FD600FC010A128A11B3250A128A11FC01FB01CF
:100FE600652F0A128A110028F801F901FA01FB019E
:0A0FF600FC0183010A128A11602F2A
:04400E00D420FF3F7C
:00000001FF
