:020000040000FA
:060000000A128A110C280F
:10000800FE00030EF0000A08F1000A128A115C28AB
:100018000A128A110F2883010A128A1113280A1258
:100028008A113D200A128A11FF30831203138500BA
:100038000330F4008A30F3005530F200F20B222826
:10004800F30B2228F40B2228292883120313850195
:100058000330F4008A30F3005530F200F20B3228F6
:10006800F30B3228F40B3228392818280A128A117F
:100078000C28831603178801890183160313850149
:10008800831203138501831603130F088F39603811
:100098008F000F1481131514951415158B178B16D3
:1000A8000B118B160B100C14831203130C10080081
:0E00B80071088A00700E8300FE0E7E0E090095
:04400E00D420FF3F7C
:00000001FF
