:020000040000FA
:060000000A128A110C280F
:10000800FE00030EF0000A08F1000A128A115729AF
:100018000A128A110F28F901FA01FB01FC01FD01FE
:1000280083010A128A1118280A128A112E210A122B
:100038008A11831203130618222823282528FD0174
:10004800FD0A061C2828292834287D03031D2D288D
:100058002E2834280A128A11D4200A128A113A2822
:10006800FD010A128A115E210A128A1183120313F2
:1000780086183F2840284228FC01FC0A861C45288F
:100088004628C7287C03031D4A284B28C728013067
:10009800F7007708FA07A2280714871007118711B5
:1000A80007128712071387131D28071487140711CF
:1000B800871107128712071387131D28071487143F
:1000C8000715871107128712071387131D280714AE
:1000D80087140715871507128712071387131D281A
:1000E8000714871407158715071687120713871330
:1000F8001D28071487140715871507168716071371
:1001080087131D28071487140715871507168716E0
:10011800071787131D28071487140715871507164F
:100128008716071787171D28FA0107108710071168
:10013800871107128712071387131D287A08F700FB
:10014800F8017808003A0319AA281D287708013A07
:1001580003195028033A03195928013A0319622848
:10016800073A03196B28013A03197428033A03194B
:100178007D28013A031986280F3A03198F28013A76
:10018800031998281D28FC010710871007118711EB
:1001980007128712071387131D280A128A110C28C1
:1001A8000130F5000030F60004298312031309100A
:1001B800891009110330F4008A30F3005530F20039
:1001C800F20BE428F30BE428F40BE428EB281A29B3
:1001D80083120313091489100911DE2883120313EB
:1001E800091489140911DE288312031309148914C8
:1001F8000915DE2883120313091089100911DE2856
:100208007608003A031909291A297508013A0319C9
:10021800D928033A0319EC28013A0319F228073AB6
:100228000319F828013A0319FE281A290130F5079D
:100238000318F60A0030F6077608803AFF00803087
:100248007F02031D292906307502031C2C292D293C
:1002580004290800831603178801890183160313EC
:100268008501061486140615870188018901831201
:100278000313850186018701880189018316031309
:100288000F088F3960388F000F14811315149514D7
:1002980015158B178B160B118B160B100C1483125C
:1002A80003130C10080071088A00700E8300FE0EFC
:1002B8007E0E090083120313091089100911080022
:04400E00D420FF3F7C
:00000001FF
